:0600000034C062C084C0A0
:10000600FCCFFBCFFACFF9CFF8CF91C0F6CFF5CF23
:10001600F4CFF3CFF2CFF1CFF0CFEFCF44C2EDCF95
:100026001027E80364000A00010000100001100018
:1000360001000000881301000000000001002D4EA1
:10004600414E00494E4600000700010002003800FC
:10005600080004003A000100B701420001007601E1
:100066004E000000F894EE27ECBBF1E0FBBFEBBFBF
:10007600E5BFF8E1F1BDE1BD8DE0A2E0BB27ED9360
:100086008A95E9F780E094E0A0E6ED930197E9F719
:10009600E0E5F0E085919591009761F0A591B59125
:1000A60005901590BF01F00105900D920197E1F7BB
:1000B600FB01F0CFEFE5EDBFE4E0EEBFC0E6D1E037
:1000C600B4C0AA93BA93EA93FA93EFB7EA93A2E776
:1000D600B1E0ED91FD913196FE93EE93849906C0C1
:1000E600839903C0F60131966F0107C0849B05C052
:1000F600839903C0F60131976F01E991EFBFF9913A
:10010600E991B991A9911895EA93FA93EFB7EA9311
:10011600829B03C0CC24DD2405C0829903C0E8E895
:10012600F3E16F01E991EFBFF991E99118950A9210
:100136001A926A937A938A939A93AA93BA93EA93B2
:10014600FA93EFB7EA9352D3E0917201F0917301FB
:1001560052D3A0E0B0E080E792E491D4DF01CB0176
:10016600F20149D3DAD4E0936E01F0936F01609304
:10017600700170937101E0E0E0937201E093730106
:10018600E991EFBFF991E991B991A9919991899175
:1001960079916991199009901895AA93E091760141
:1001A600E03009F03FC0E881E030E1F5A09175014B
:1001B600E0E225D538C0AA93E881E03099F5A09110
:1001C6007701A43451F4DA92CA92A0E6B1E05AD08B
:1001D60015D3A0E6B1E012D121C0A0917701A235D6
:1001E60099F4E0916E01F0916F0160917001709148
:1001F600710119D5E3E0EA93A7E6B1E070D0FED22B
:10020600A7E6B1E0FBD00AC0A0917701AE3431F485
:10021600F894E8E1E1BDE8E0E1BDFFCFA7E9B1E090
:1002260005D101C0E0E021960895E0E0EFBDE5E0EC
:10023600EEBDDCD2E0E0E7BDE6BDEBBDEABDE9BD63
:10024600E8BDEBB7E06CEBBFEFE0E5BFE0ECEABF83
:10025600E4E0E9BFE0E8E8B9E0E0E0BFEDB9E1E0FD
:10026600EA93E0E0EA93E7E7F1E0CDD2E1E0EA9352
:10027600C5D2E0EDF0E0C7D2AEEDB0E0E2D07894C2
:10028600FFCFFFCFC3D2A991B991E991F9913096E9
:100296002AF4E095F09531966DE26D93E89480E14D
:1002A60097E20DD088EE93E00AD084E6992707D02E
:1002B6008AE005D06E2F10D066276C9308956627C6
:1002C600E817F90720F06395E81BF90BC9F76623D1
:1002D60011F416F008956894605D6D93089596D2B2
:1002E6002497E0E0E883E983EA83EFE3EB83B6D47F
:1002F600EB85FC85EF3FAFEFFA0729F48AD2A4E439
:10030600B0E088D078C0EF3FAFE7FA0729F481D292
:10031600A5E4B0E07FD06FC0AC85AA2332F47CD2CE
:10032600B8D27FD283D2EDE2EC93A885A73010F045
:10033600E6E0E8871885E12F1150E03021F07DD204
:1003460081D286D2F8CF89D24AD36BD210E0E0E0D0
:10035600F0E060E87FE37CD280D224D460F06DD2F6
:1003660085D276D21F5F173228F053D2A9E4B0E0C7
:1003760051D041C0F1CF103021F458D2E0E3EC93D4
:100386001DC0E12F1150E030C9F057D25BD2A0E07A
:10039600B0E080E09FE323D3DF01CB0117D258D230
:1003A6005CD2BBD3A9D20E2F41D266D246D223D27B
:1003B60066D368D242D40CD334D2E3CFE885E0309A
:1003C600B1F034D2EEE2EC93E885E150E887EF5FD6
:1003D60071F058D24BD225D21FD28ED20E2F26D2F2
:1003E6004BD250D208D229D4F3D21BD2EDCFAE8154
:1003F600BF81E0E0EC9339D42D96089507D2E991B8
:10040600F991A991B991CD0161916D936623E1F7B7
:10041600FC010895FBD1E991F991A991B991CD011A
:1004260005900D920020E1F7FC010895EFD1A99106
:10043600B991EE27FF276D91662311F03196FBCF18
:100446000895E4D1689421F8E7E0E0937601EF811E
:10045600F885E093BF01F093C001EE81E093C201FD
:10046600EC81FD81E093BC01F093BD01EA81FB8143
:10047600E093C301F093C401E881F981E093C501DB
:10048600F093C601E5B3E063E5BBEA85E03011F021
:10049600E1E002C0E985EE0FE2B9E6B7E078E5648F
:1004A600E6BF2B9608950A921A92FA926A937A9365
:1004B6008A939A93AA93BA93EA93FA93EFB7EA9335
:1004C600C9D310917501009174013091BE0120913C
:1004D6007601E12FA091BF01B091C001F0E0EA0FD3
:1004E600FB1FAF01E1B1E87FE83011F420E002C064
:1004F600E03119F4E091BB0110C0E83111F0E832A7
:1005060021F5031780F4E02F0F5FA091BC01B09195
:10051600BD01F0E0AE0FBF1FEC91E3B9E6B7EF7097
:10052600E068E6BF11C0E091C1011E1760F4E091DA
:10053600BB01E160E093BB01E89420F8E6B7EF70F9
:10054600E06AE6BFFBC033C0F9C0E03529F4E3B189
:10055600DA01EC931F5F02C0E03471F4E091C1014F
:10056600E1501E1720F0E6B7EF70E06803C0E6B76B
:10057600EF70E06CE6BFE2C0E83529F4E3B1DA01DA
:10058600EC931F5F02C0E03209F402C0E03309F4C5
:1005960002C0E83469F4203051F420FE03C003178A
:1005A60028F005C0E091C1011E1708F424E0C0C080
:1005B600E83329F422E0E6B7EF70E068BCC0E8361D
:1005C60011F0E83711F422E005C0E03611F0E0370B
:1005D60091F420E010E0E89420F8E091C201E030C8
:1005E60029F421E0E6B7EF70E06803C0E6B7EF70E4
:1005F600E06CE6BFA3C0E03811F0E03929F520FE33
:1006060002C021E095C0E3B1DA01EC931F5FE091EF
:10061600C2011E17B0F4E091C301F091C4013097F6
:1006260011F426E085C0A0E0E091C301F091C40179
:100636000995E03029F0E6B7EF70E06CE6BF7EC0C2
:1006460002C0689420F802C0E83809F402C0E8390C
:1006560029F4E6B7EF70E068E6BF70C0E03AA9F4A7
:10066600E6B7EF70E06CE6BF689421F8E091C3014D
:10067600F091C401309739F0A1E0E091C301F09107
:10068600C401099501C026E059C0E03B11F422E0FF
:1006960002C0E83AB9F4E091C501F091C60130977D
:1006A60059F0A0E0E091C501F091C60109953E2FF1
:1006B600E03011F020E002C026E03AC000E0E89405
:1006C60020F802C0E83BE1F420FE02C021E030C081
:1006D600E02F0F5FA091BC01B091BD01F0E0AE0F1D
:1006E600BF1FEC91E3B9031720F4E6B7EF70E06C97
:1006F60005C0689420F8E6B7EF70E068E6BF1EC054
:10070600E03C11F0E83C89F4E6B7EF70E06CE6BF38
:10071600E091C501F091C601309731F0A1E0E0917A
:10072600C501F091C601099507C0E03039F423E010
:10073600E6B7EF70E06DE6BF689421F81093750197
:1007460000937401209376013093BE018AD22696D7
:10075600E991EFBFF991E991B991A991999189919F
:1007660079916991F99019900990189561D27B81D8
:100776006A81F981E88177FB770F67FD7160972FB2
:100786009E5781F078F0983190F4AA27BB278827E6
:1007960008948795B795A7959A95D1F7EA23FB23F1
:1007A600682305C0E8947727EE27FF2766276F772B
:1007B600769508F4606877F9A991B991899199912C
:1007C600EA17FB076807790797FB089531D221D20C
:1007D600CDDF24D211F45BD007C0EEF758D0A0E0ED
:1007E600B0E080E89FE3F4D024960895E5EDEDBDF2
:1007F600E0EDECBD0895FED1B8D00895E7E9F1E04B
:10080600FA93EA930895FA93EA930895BA93AA930A
:100816000895EE81FF81F7CFE985FA856B857C85A2
:100826000895E987FA876B877C870895AE81BF8133
:100836001196AE83BF8311970895AA81BB818C81DF
:100846009D810895EDECFCEC6CEC7DE318D10895E8
:10085600EA83FB836C837D830895EA81FB816C8147
:100866007D81A985BA858B859C850895E0E0F0E0B9
:1008760060E271E404D10895E02FE05DEC93E02F8F
:10088600F0E00895A985BA858B859C850895BCD12D
:10089600089530976040704009F0705808955523C8
:1008A60042F4503811F4E0FF04C03196691F791FF5
:1008B6006BF050E8572711F45F93CFC05F3F31F0DC
:1008C600660F000C57956795752F08955F93002066
:1008D6000AF0CFC0C8C050E8192E1522880F991FFC
:1008E6009527550F879550E8072E0522660F771F27
:1008F6007527550F67950895689401C0E8945F932E
:10090600F2DF703818F07F3F08F4A7C056E1571B96
:10091600AAF4519558300EF4593030F0EFEFFFEF4E
:100926006FEF7FE777F91AC077275523B9F0EE0FF7
:10093600FF1F661F771F5A95D1F710C077275830CB
:1009460028F0EF2FF62F672F5850F9CF552331F0A7
:1009560076956795F795E7955A95D1F700200AF4AD
:1009660041D15F910895689401C0E8943097604042
:100976007040B1F0002426F0772312F4009432D1AF
:10098600172E7EE1112032F07A95EE0FFF1F661FBB
:10099600111CF9CFEF2FF62F612D5F938ADF5F9140
:1009A60008954F93AF01FD01DA01AB01BC01CA0105
:1009B600402D012C142E4F910895EA0FFB1F681F3E
:1009C6000895E095F0956095EF5FFF4F6F4F08959E
:1009D6005F9381DF903871F150E8152604C05F936C
:1009E6007ADF903839F1703821F1572F591B2BF1E6
:1009F60012F4D7DFFACF583118F0AA27BB27882779
:100A0600583028F0AB2FB82F88275850F9CF5523E8
:100A160029F08695B795A7955A95D9F7502D512562
:100A260072F0CBDF38F46795F795E795739513F475
:100A360020C0B7DF3EDF5F910895D8F7FBCFEA1BF2
:100A4600FB0B680B51F010F40094BBDF662392F3A6
:100A5600EE0FFF1F661F7A95CBF7EE27FF27662757
:100A660077275F910895EFEFFFEF6FE77FEF5F91D5
:100A76000895EFEFFFEF6FE77FE75F9108955F93CC
:100A86002ADF703851F3903841F301240894791F16
:100A960023F41CF300203AF3ECCF0F921F932F930D
:100AA6003F934F93112722279927689FA0018F9F75
:100AB600302D410D591F6B9F300D411D591F8E9FC3
:100AC60027D0BF9F25D06A9F23D0BE9F1DD0AF9F42
:100AD6001BD0AE9F110D291F391F491F591FE32F28
:100AE600F42F652F522F4F913F912F911F910F9009
:100AF60066232AF0550FEE1FFF1F661F02C073956F
:100B06004BF2CDDE5F910895100D211D391F02C0F5
:100B1600200D311D491F591F08955F93DCDE703883
:100B260021F411200AF49FCFA4CF903809F495CF71
:100B360001240894970B1BF4D4F30020F3CF792FEC
:100B46001F932F933F934F93112411272227332767
:100B56004427552790E2AE17BF078607410730F0B6
:100B6600AE1BBF0B860B410B089401C08894551F22
:100B7600221F331F111CAA1FBB1F881F441F9A95D3
:100B860051F7F901612D4F913F912F911F916623E6
:100B960032F0550FEE1FFF1F661F7A9543F27FDE78
:100BA6005F91089599239AF0772342F0971748F0BA
:100BB60029F4AE17BF07860720F031F09894889481
:100BC600089598940894089518948894089577231E
:100BD600C2F7971798F3A9F7EA17FB07680788F390
:100BE60099F3ECCFF09560957095E195FF4F6F4FB7
:100BF6007F4F08956F2F660F660B762F0895AE17F9
:100C0600E1E008F0EE270895E881F9816A817B81A9
:100C16000895A881B9818A819B810895E883F98323
:100C26006A837B8308957A936A93FA93EA93089585
:100C36009A938A93BA93AA930895182E862F612DB4
:100C4600192E972F712D1B2EBF2FF12D1A2EAE2F79
:100C5600E12D08955A934A933A932A931A930A9345
:100C660008955D814C813B812A811981088108950F
:00000001FF
